{
  "contractName": "Voting",
  "abi": [
    {
      "constant": true,
      "inputs": [
        {
          "name": "",
          "type": "bytes32"
        }
      ],
      "name": "votesReceived",
      "outputs": [
        {
          "name": "",
          "type": "uint16"
        }
      ],
      "payable": false,
      "stateMutability": "view",
      "type": "function"
    },
    {
      "constant": true,
      "inputs": [
        {
          "name": "",
          "type": "uint256"
        }
      ],
      "name": "candidateList",
      "outputs": [
        {
          "name": "",
          "type": "bytes32"
        }
      ],
      "payable": false,
      "stateMutability": "view",
      "type": "function"
    },
    {
      "constant": true,
      "inputs": [
        {
          "name": "",
          "type": "uint256"
        }
      ],
      "name": "candidatesVotes",
      "outputs": [
        {
          "name": "",
          "type": "uint16"
        }
      ],
      "payable": false,
      "stateMutability": "view",
      "type": "function"
    },
    {
      "inputs": [],
      "payable": false,
      "stateMutability": "nonpayable",
      "type": "constructor"
    },
    {
      "constant": false,
      "inputs": [
        {
          "name": "candidateNames",
          "type": "bytes32[]"
        }
      ],
      "name": "getCandidateNames",
      "outputs": [],
      "payable": false,
      "stateMutability": "nonpayable",
      "type": "function"
    },
    {
      "constant": true,
      "inputs": [
        {
          "name": "candidate",
          "type": "bytes32"
        }
      ],
      "name": "totalVotesFor",
      "outputs": [
        {
          "name": "",
          "type": "uint16"
        }
      ],
      "payable": false,
      "stateMutability": "view",
      "type": "function"
    },
    {
      "constant": false,
      "inputs": [],
      "name": "totalVotesForAll",
      "outputs": [
        {
          "name": "",
          "type": "uint16[]"
        }
      ],
      "payable": false,
      "stateMutability": "nonpayable",
      "type": "function"
    },
    {
      "constant": false,
      "inputs": [
        {
          "name": "candidate",
          "type": "bytes32"
        }
      ],
      "name": "voteForCandidate",
      "outputs": [
        {
          "name": "",
          "type": "bool"
        }
      ],
      "payable": false,
      "stateMutability": "nonpayable",
      "type": "function"
    },
    {
      "constant": true,
      "inputs": [
        {
          "name": "candidate",
          "type": "bytes32"
        }
      ],
      "name": "validCandidate",
      "outputs": [
        {
          "name": "",
          "type": "bool"
        }
      ],
      "payable": false,
      "stateMutability": "view",
      "type": "function"
    }
  ],
  "bytecode": "0x6060604052341561000f57600080fd5b61063d8061001e6000396000f30060606040526004361061008e576000357c0100000000000000000000000000000000000000000000000000000000900463ffffffff1680632f265cf714610093578063392e6678146100d65780634af5c077146101155780637021939f1461016f578063b13c744b146101b2578063b6c0d680146101f1578063cc9ab26714610230578063e59db9a91461026f575b600080fd5b341561009e57600080fd5b6100b86004808035600019169060200190919050506102d9565b604051808261ffff1661ffff16815260200191505060405180910390f35b34156100e157600080fd5b6100fb60048080356000191690602001909190505061031f565b604051808215151515815260200191505060405180910390f35b341561012057600080fd5b61016d60048080359060200190820180359060200190808060200260200160405190810160405280939291908181526020018383602002808284378201915050505050509190505061037f565b005b341561017a57600080fd5b610194600480803560001916906020019091905050610399565b604051808261ffff1661ffff16815260200191505060405180910390f35b34156101bd57600080fd5b6101d360048080359060200190919050506103ba565b60405180826000191660001916815260200191505060405180910390f35b34156101fc57600080fd5b61021260048080359060200190919050506103de565b604051808261ffff1661ffff16815260200191505060405180910390f35b341561023b57600080fd5b610255600480803560001916906020019091905050610415565b604051808215151515815260200191505060405180910390f35b341561027a57600080fd5b61028261047d565b6040518080602001828103825283818151815260200191508051906020019060200280838360005b838110156102c55780820151818401526020810190506102aa565b505050509050019250505060405180910390f35b60006102e48261031f565b15156102ef57600080fd5b600080836000191660001916815260200190815260200160002060009054906101000a900461ffff169050919050565b600080600090505b60018054905081101561037457826000191660018281548110151561034857fe5b9060005260206000209001546000191614156103675760019150610379565b8080600101915050610327565b600091505b50919050565b8060019080519060200190610395929190610585565b5050565b60006020528060005260406000206000915054906101000a900461ffff1681565b6001818154811015156103c957fe5b90600052602060002090016000915090505481565b6002818154811015156103ed57fe5b9060005260206000209060109182820401919006600202915054906101000a900461ffff1681565b60006104208261031f565b151561042b57600080fd5b6001600080846000191660001916815260200190815260200160002060008282829054906101000a900461ffff160192506101000a81548161ffff021916908361ffff16021790555060019050919050565b6104856105d8565b60008090505b600180549050811015610506576104bb6001828154811015156104aa57fe5b9060005260206000209001546102d9565b6002828154811015156104ca57fe5b90600052602060002090601091828204019190066002026101000a81548161ffff021916908361ffff160217905550808060010191505061048b565b600280548060200260200160405190810160405280929190818152602001828054801561057a57602002820191906000526020600020906000905b82829054906101000a900461ffff1661ffff16815260200190600201906020826001010492830192600103820291508084116105415790505b505050505091505090565b8280548282559060005260206000209081019282156105c7579160200282015b828111156105c65782518290600019169055916020019190600101906105a5565b5b5090506105d491906105ec565b5090565b602060405190810160405280600081525090565b61060e91905b8082111561060a5760008160009055506001016105f2565b5090565b905600a165627a7a723058201545d5ec1cada99e5f3142741ac6bddf5f0c065650c0d33369e652de513ffe110029",
  "source": "pragma solidity ^0.4.17;\r\n// We have to specify what version of compiler this code will compile with\r\n\r\ncontract Voting {\r\n  /* mapping field below is equivalent to an associative array or hash.\r\n  The key of the mapping is candidate name stored as type bytes32 and value is\r\n  an unsigned integer to store the vote count\r\n  */\r\n  \r\nmapping (bytes32 => uint16) public votesReceived;\r\n  \r\n  /* Solidity doesn't let you pass in an array of strings in the constructor (yet).\r\n  We will use an array of bytes32 instead to store the list of candidates\r\n  */\r\n  \r\nbytes32[] public candidateList;\r\nuint16[] public candidatesVotes;\r\n\r\n\r\n  /* This is the constructor which will be called once when you\r\n  deploy the contract to the blockchain. When we deploy the contract,\r\n  we will pass an array of candidates who will be contesting in the election\r\n  */\r\nfunction Voting() public {\r\n }\r\n\r\n //Solidity doesn't allow you to pass anything into the contract constrcutor anymore so created a seperate function to instatiate the candidates\r\n \r\n\tfunction getCandidateNames(bytes32[] candidateNames) public {\r\n\tcandidateList = candidateNames;\r\n\t}\r\n\r\n  // This function returns the total votes a candidate has received so far\r\n\r\n\tfunction totalVotesFor(bytes32 candidate) view public returns (uint16) {\r\n\trequire(validCandidate(candidate));\r\n\treturn votesReceived[candidate];\r\n\t}\r\n\r\n// This function returns the total votes for ALL candidates into an array \r\n\r\n\r\n\tfunction totalVotesForAll() public returns (uint16[]) {\r\n \tfor(uint i = 0; i < candidateList.length; i++) {\r\n\tcandidatesVotes[i]  = totalVotesFor(candidateList[i]);\r\n\t}\r\n\r\n\treturn candidatesVotes;\r\n\t}\r\n\r\n // This function increments the vote count for the specified candidate. This\r\n // is equivalent to casting a vote\r\n\t\r\n\tfunction voteForCandidate(bytes32 candidate) public returns (bool) {\r\n\trequire(validCandidate(candidate));\r\n\tvotesReceived[candidate] += 1;\r\n\treturn true;\r\n\t}\r\n\r\n\tfunction validCandidate(bytes32 candidate) view public returns (bool) {\r\n\tfor(uint i = 0; i < candidateList.length; i++) {\r\n\tif (candidateList[i] == candidate) {\r\n        return true;\r\n      }\r\n    }\r\n    return false;\r\n  }\r\n}",
  "sourcePath": "C:\\Node_Projects\\hellodapp\\contracts\\Voting.sol",
  "compiler": {
    "name": "solc",
    "version": "0.4.19+commit.c4cbbb05.Emscripten.clang"
  },
  "schemaVersion": "1.0.1",
  "updatedAt": "2018-03-20T14:42:55.802Z"
}